:020000040000fa
:080000000013040000000000e1
:020000040000fa
:1000080002100000061000000a1000000e10000088
:1000180012100000161000001a1000001e10000038
:1000280022100000261000002a1000002e100000e8
:1000380032100000361000003a1000003e10000098
:1000480042100000461000004a1000004e10000048
:1000580052100000561000005a1000005e100000f8
:1000680062100000661000006a1000006e100000a8
:1000780072100000761000007a1000007e10000058
:1000880082100000861000008a1000008e10000008
:1000980092100000961000009a1000009e100000b8
:1000a800a2100000a6100000aa100000ae10000068
:1000b800b2100000b6100000ba100000be10000018
:1000c800c2100000c6100000ca100000ce100000c8
:1000d800d2100000d6100000da100000de10000078
:1000e800e2100000e6100000ea100000ee10000028
:1000f800f2100000f6100000fa100000fe100000d8
:1001080002110000061100000a1100000e11000083
:1001180012110000161100001a1100001e11000033
:1001280022110000261100002a1100002e110000e3
:1001380032110000361100003a1100003e11000093
:1001480042110000461100004a1100004e11000043
:1001580052110000561100005a1100005e110000f3
:1001680062110000661100006a1100006e110000a3
:1001780072110000761100007a1100007e11000053
:1001880082110000861100008a1100008e11000003
:1001980092110000961100009a1100009e110000b3
:1001a800a2110000a6110000aa110000ae11000063
:1001b800b2110000b6110000ba110000be11000013
:1001c800c2110000c6110000ca110000ce110000c3
:1001d800d2110000d6110000da110000de11000073
:1001e800e2110000e6110000ea110000ee11000023
:1001f800f2110000f6110000fa110000fe110000d3
:1002080002120000061200000a1200000e1200007e
:1002180012120000161200001a1200001e1200002e
:1002280022120000261200002a1200002e120000de
:1002380032120000361200003a1200003e1200008e
:1002480042120000461200004a1200004e1200003e
:1002580052120000561200005a1200005e120000ee
:1002680062120000661200006a1200006e1200009e
:0c02780072120000761200007a120000e2
:020000040000fa
:1020000002000000fa13040000000000fa130400ac
:1020100000000000fa13040000000000fa1304009e
:1020200000000000fa13040000000000fa1304008e
:1020300000000000fa13040000000000fa1304007e
:1020400000000000fa13040000000000fa1304006e
:1020500000000000fa13040000000000fa1304005e
:1020600000000000fa13040000000000fa1304004e
:1020700000000000fa13040000000000fa1304003e
:1020800000000000fa13040000000000fa1304002e
:1020900000000000fa13040000000000fa1304001e
:1020a00000000000fa13040000000000fa1304000e
:1020b00000000000fa13040000000000fa130400fe
:1020c00000000000fa13040000000000fa130400ee
:1020d00000000000fa13040000000000fa130400de
:1020e00000000000fa13040000000000fa130400ce
:1020f00000000000fa13040000000000fa130400be
:1021000000000000fa13040000000000fa130400ad
:1021100000000000fa13040000000000fa1304009d
:1021200000000000fa13040000000000fa1304008d
:1021300000000000fa13040000000000fa1304007d
:1021400000000000fa13040000000000fa1304006d
:1021500000000000fa13040000000000fa1304005d
:1021600000000000fa13040000000000fa1304004d
:1021700000000000fa13040000000000fa1304003d
:1021800000000000fa13040000000000fa1304002d
:1021900000000000fa13040000000000fa1304001d
:1021a00000000000fa13040000000000fa1304000d
:1021b00000000000fa13040000000000fa130400fd
:1021c00000000000fa13040000000000fa130400ed
:1021d00000000000fa13040000000000fa130400dd
:1021e00000000000fa13040000000000fa130400cd
:1021f00000000000fa13040000000000fa130400bd
:1022000000000000fa13040000000000fa130400ac
:1022100000000000fa13040000000000fa1304009c
:1022200000000000fa13040000000000fa1304008c
:1022300000000000fa13040000000000fa1304007c
:1022400000000000fa13040000000000fa1304006c
:1022500000000000fa13040000000000fa1304005c
:1022600000000000fa13040000000000fa1304004c
:1022700000000000fa13040000000000fa1304003c
:1022800000000000fa13040000000000fa1304002c
:1022900000000000fa13040000000000fa1304001c
:1022a00000000000fa13040000000000fa1304000c
:1022b00000000000fa13040000000000fa130400fc
:1022c00000000000fa13040000000000fa130400ec
:1022d00000000000fa13040000000000fa130400dc
:1022e00000000000fa13040000000000fa130400cc
:1022f00000000000fa13040000000000fa130400bc
:1023000000000000fa13040000000000fa130400ab
:1023100000000000fa13040000000000fa1304009b
:1023200000000000fa13040000000000fa1304008b
:1023300000000000fa13040000000000fa1304007b
:1023400000000000fa13040000000000fa1304006b
:1023500000000000fa13040000000000fa1304005b
:1023600000000000fa13040000000000fa1304004b
:1023700000000000fa13040000000000fa1304003b
:1023800000000000fa13040000000000fa1304002b
:1023900000000000fa13040000000000fa1304001b
:1023a00000000000fa13040000000000fa1304000b
:1023b00000000000fa13040000000000fa130400fb
:1023c00000000000fa13040000000000fa130400eb
:1023d00000000000fa13040000000000fa130400db
:1023e00000000000fa13040000000000fa130400cb
:1023f00000000000fa13040000000000fa130400bb
:1024000000000000fa13040000000000fa130400aa
:1024100000000000fa13040000000000fa1304009a
:1024200000000000fa13040000000000fa1304008a
:1024300000000000fa13040000000000fa1304007a
:1024400000000000fa13040000000000fa1304006a
:1024500000000000fa13040000000000fa1304005a
:1024600000000000fa13040000000000fa1304004a
:1024700000000000fa13040000000000fa1304003a
:1024800000000000fa13040000000000fa1304002a
:1024900000000000fa13040000000000fa1304001a
:1024a00000000000fa13040000000000fa1304000a
:1024b00000000000fa13040000000000fa130400fa
:1024c00000000000fa13040000000000fa130400ea
:1024d00000000000fa13040000000000fa130400da
:1024e00000000000fa13040000000000fa130400ca
:0c24f00000000000fa13040000000000cf
:020000040000fa
:102600004f0121000eff24000e0188000000000091
:10261000000020000000e000020032000001200065
:1026200020028800140007008d0007000000e00071
:1026300003003a0000a5220001002000020037003c
:102640000000200001002000810f70000100320016
:102650000f000700000020000000e0000200320030
:102660000000020000000000162a02000000000026
:102670000040da000000fe00e08520000000e000dd
:1026800002003200002020009001880000000600b7
:10269000a1028800800478000000eb001f003700d2
:1026a000e284440054a0b4009905ba00e2844400d6
:1026b00054a0b4009906ba00e284440054a0b400c7
:1026c0000006eb00476fde00fd07b200ae01880098
:1026d000636ce10003003a000ad801000000eb003f
:1026e0000e003700606ce10008003a00004deb007e
:1026f0000a05e800020039003420ec000af0a000ce
:102700008b05e900f9ff3e00040037006168e10035
:10271000010032000086eb000b00070019c7ba0069
:102720000e04e0001905ba0003003a000a00e000b8
:10273000dbff3a0000000600fe07b200ae02880090
:102740008a047800f5ff37000cd0a300e20f4d009b
:102750001c00390089027800354dba000a05e800ee
:10276000020039003420ec000af0a0008b05e900db
:102770000f003200254dba000a05e80002003900ba
:102780003420ec000af0a0008b05e90008003200bc
:102790000c00e0000600320015cdba000a05e80082
:1027a000020039003420ec000af0a0008b05e9009b
:1027b0008984e80054a0b4000b00e000e2ff3a0076
:1027c000000006009902ba00055d78008b05e9005b
:1027d000f7ff3200c82ade00055d78008b05e900ae
:1027e000f3ff32000c00e000f1ff320019ddba0007
:1027f000eeff37003600f800809fbe00829fbe00cb
:10280000849fbe00869fbe003200f8003400f800ae
:1028100010002000a0018800002020009001880006
:10282000000000000000fa00000121004146800085
:1028300001087800a06e2900d30507000080fa0087
:102840003400f9003200f9004f03be004f02be0011
:102850004f01be004f00be003600f90000400600e8
:102860000000050003f0a200889fbe008a9fbe0002
:102870008c1f7800f5000700fc0033006450e10075
:102880004f0032006420e1005200320003826c00ed
:1028900007003b000905d0000306d000820f54005a
:1028a0000c065d0002003900020032008901780048
:1028b000030678008582550004003d000003fd00fa
:1028c0008103fd008502ea008b854200840f7200bf
:1028d00002003b0060001000e08018006011b800aa
:1028e0000005eb007a28e1000a00390006007800b4
:1028f000c75ddd00f707b200878075002d00370047
:10290000828171000a017800610560008180d10038
:102910000080d3008502e900f9ff3b000604400077
:102920008784480002003b0060041400e0841c001f
:102930000988a300070032008a817100828171003a
:10294000610164008904d1000884d3008b05e8008c
:10295000170037000978a30013003a000b00e000cd
:10296000130034008b05e9000804440089844c00fe
:102970000a4474000978a3000d003a000b00e0003f
:10298000070034008b05e9000804440089844c00ea
:1029900001003a000b0020000978a300f7ff320085
:1029a0000001eb0002003700828171000a0178000b
:1029b0006b0007000cf0a70001f0a000b400370086
:1029c0006420e10002003a00838f6c00b400330001
:1029d0000801be000200be00ad003700889fbe00a7
:1029e0008a9fbe008c1f7800980007009f0033006c
:1029f00003866c006450e1002e0032006420e10088
:102a0000330032006150e1002f0032006120e1000c
:102a10003100320085855500eb07b0000900200029
:102a200008042000050037000804440089844c0095
:102a30000a0031000603430087834b000001530066
:102a400081815b00f8ff33000203be000800a00094
:102a50000804440089844c00f6ff3900c639dd00c3
:102a60008301730001003200130020008904d100ab
:102a70000884d3000998a300050032000800a700cd
:102a80000300a0008904d1000884d3008b05e8006e
:102a90008904d1000884d3000001eb000281d20038
:102aa0002f00070001f0a1000cf0a70001f0a0002a
:102ab000770037006420e100790032000801be0091
:102ac0000200be00f7ff37006120e1007400320011
:102ad0006000b800f3ff37000000200001f8270075
:102ae000f0ff370014002000700037000001be0026
:102af000410007000470a70003f0a10003f8a30041
:102b000013003a006509b1001000320009003500d9
:102b10006928e100020035000100280000000500de
:102b200000004000818048008502e900fcff3a0077
:102b300000000600f88f4200050035008100d1003a
:102b40000080d3008502e800fcff3a000000060088
:102b50008000eb00000005006011b8006e00370037
:102b600081002000618055000b003d000b0020001b
:102b700061fe2f000100e1001d0034008281710020
:102b8000610164008904d1000884d3000000e800da
:102b9000faff3a0071002000610064000300700039
:102ba000020060000900320061044400e0844c002f
:102bb0000988a500050032008b05e8006808e100df
:102bc00002003a008904d1000884d300f20f2000eb
:102bd0000258e10005003d00c75ddd00f907b200c5
:102be0008980750008007800000006000bf82700b7
:102bf0008b00780000000500c70ade00f107b20074
:102c0000f50fb20008003200e1cf420002003200ae
:102c10000170a00024000500810f70000100320047
:102c20000408050044000500810f700002003a000e
:102c3000140005008502e9000000400081c0480042
:102c4000fcff3b000170a000240005000004be0052
:102c5000e9ff07000003be000405be000200be003d
:102c6000e5ff0700844f7500000006000200be006b
:102c70006450e100050036006420e10002003600e7
:102c80000968a30001003a000800be000160a0002e
:102c90004f0678004f05be004f04be00000006003e
:102ca000f0ff2f00f1ff2700f9ff3700889fbe00db
:102cb0008a9fbe00841f7800e4ff07004f00780061
:102cc00011003300f0ff2f00838f6c0006003b00e3
:102cd000040565000a00a7000800370009f0a600f7
:102ce0001000200008003700820f5400838f5c0022
:102cf000030039001000200001003e000000200009
:102d000009f0a7000000ea004f05be004f04be0016
:102d10000000e00000000600889fbe008a9fbe0001
:102d200000827000040271000482710026003200eb
:102d30000004be000200be006011b8006b09200054
:102d4000950220000182cf000a0039000541b10040
:102d50000082cf00070039000541b1000982cf0091
:102d6000040039000541b1000882cf00010039009c
:102d70000541b10005425200120032000a003b003a
:102d800082817100610164008100d1000080d30064
:102d90008984d3000884d3008b05e8000442e8004e
:102da000f7ff3a00070037000804440089844c000c
:102db00000004800818048008b05e9000442e900da
:102dc000f9ff3a0066ff07004f05be004f04be0042
:042dd00000000600f9
:020000040000fa
:102dd400556e0000686100006e6400006c650000c0
:102de40064200000696e00007465000072720000c7
:102df40075700000742c000020000000756e000047
:102e04006b6e00006f7700006e00000064730000ba
:102e140050490000433300003345000050310000a6
:102e24003238000047500000353000003200000006
:102e3400413300000044000065760000696300002f
:102e44006520000049440000203d000020000000ef
:102e540020280000002900002c20000072650000da
:102e640076690000736900006f6e000020000000a6
:102e7400290a0000000a00000a2a00002a2a000089
:102e84002a2a00002a2a00002a2a00002a2a0000ee
:102e94002a2a00002a2a00002a2a00002a2a0000de
:102ea4002a2a00002a2a00002a2a00002a2a0000ce
:102eb4002a2a00002a2a00002a2a00002a2a0000be
:102ec4002a2a00002a2a00002a2a00002a2a0000ae
:102ed4002a2a00002a2a00002a2a00002a2a00009e
:102ee4002a2a00002a0a00002a2000005741000074
:102ef400524e0000494e0000472000002d200000e3
:102f0400746800006973000020700000726f000094
:102f140067720000616d000020770000617300009b
:102f2400206300006f6d0000706900006c65000094
:102f340064200000666f00007220000074680000c6
:102f440065200000777200006f6e000067200000ab
:102f5400202a00000a2a000020630000686900009b
:102f6400702e0000205400006869000073200000e7
:102f7400707200006f670000726100006d20000035
:102f84006d61000079200000707200006f64000021
:102f94007563000065200000756e00006578000010
:102fa4007065000063740000656400002062000026
:102fb40065680000766900006f720000212000003f
:102fc4002a0a00002a2000004564000069740000f9
:102fd400207400006865000020680000656100003e
:102fe4006465000072200000666900006c650000e2
:102ff40073200000746f000020700000726f0000e6
:1030040070650000726c00007920000064650000a7
:10301400666900006e6500002074000068690000a5
:10302400732000006368000069700000202a00001b
:103034000a2a0000206100006e6400002074000071
:103044006f200000696e0000737500007265000057
:10305400206300006f72000072650000637400005a
:10306400206f000070650000726100007469000048
:103074006f6e00002e2000002020000020200000a1
:10308400202000002020000020200000202000003c
:103094002020000020200000202000002a0a000038
:1030a4002a20000020200000202000002020000012
:1030b400202000002020000020200000202000000c
:1030c40020200000202000002020000020200000fc
:1030d40020200000202000002020000020200000ec
:1030e40020200000202000002020000020200000dc
:1030f40020200000202000002020000020200000cc
:103104002020000020200000202a00000a2a0000bd
:10311400204e00004f540000453a000020490000b2
:1031240066200000746800006973000020770000c6
:1031340061730000206300006f6d0000706900007f
:103144006c65000064200000666f000072200000bf
:103154007468000065200000636f00007272000054
:10316400656300007420000063680000697000005b
:103174002c200000202000002a0a00002a20000041
:10318400616e0000642000006f6e00006c79000026
:10319400206f00006363000075720000732000005c
:1031a40061740000207000006f77000065720000f9
:1031b4002d6f00006e200000286e00006f74000068
:1031c4002064000075720000696e00006720000032
:1031d400612000004d4300004c52000020200000fc
:1031e40020200000202a00000a2a0000207200008b
:1031f4006573000065740000292c0000207600002f
:10320400657200006966000079200000746800009f
:103214006174000020410000564400004420000076
:10322400616e00006420000041560000535300000a
:103234002061000072650000206300006f6e0000d2
:103244006e65000063740000656400002e200000b9
:10325400202000002a0a00002a2000004f6e0000ef
:1032640020740000686500002050000049430000fd
:10327400323400004833000032470000503200006e
:10328400303200002c2000006e6f0000742000001b
:10329400636f00006e6e00006563000074690000d7
:1032a4006e670000204100005644000044200000e6
:1032b400202000002020000020200000202000000a
:1032c400202a00000a2a000020700000726f00000b
:1032d40064750000636500007320000074680000da
:1032e40069730000206d00006573000073610000c5
:1032f40067650000206f00006e6c000079200000fc
:1033040061740000207000006f7700006572000097
:103314002d750000702e00002020000020200000e9
:103324002020000020200000202000002020000099
:103334002a0a00002a2a00002a2a00002a2a000059
:103344002a2a00002a2a00002a2a00002a2a000029
:103354002a2a00002a2a00002a2a00002a2a000019
:103364002a2a00002a2a00002a2a00002a2a000009
:103374002a2a00002a2a00002a2a00002a2a0000f9
:103384002a2a00002a2a00002a2a00002a2a0000e9
:103394002a2a00002a2a00002a2a00002a2a0000d9
:1033a4000a0000004661000073740000205200000f
:1033b400432000004f730000630a00000046000031
:1033c400617300007420000052430000204f00008d
:1033d4007363000020770000697400006820000017
:1033e400504c00004c0a00000050000072690000bc
:1033f4006d61000072790000204f000073630000cb
:1034040020280000585400002c20000048530000dd
:103414002c20000045430000290a00000050000051
:10342400726900006d61000072790000204f000095
:103434007363000020280000585400002c20000072
:10344400485300002c2000004543000029200000c0
:103454007769000074680000205000004c4c0000a4
:103464000a00000053650000636f00006e640000f2
:1034740061720000792000004f730000630a0000ad
:10348400004c00006f770000205000006f770000b0
:103494006572000020520000432000004f730000ba
:1034a400630a0000004600006173000074200000fd
:1034b40052430000204f0000736300002f310000ce
:1034c400360a00000046000061730000742000000a
:1034d40052430000204f0000736300002f4e000091
:1034e4000a000000556e00006b6e00006f7700004c
:1034f4006e2000006f730000636900006c6c0000b4
:10350400617400006f720000207400007970000084
:10351400652e0000000a0000446500007669000082
:1035240063650000206800006173000020620000f1
:10353400656500006e200000696e000020730000c5
:103544006c65000065700000206d00006f64000071
:10355400650a0000000a0000446500007669000066
:1035640063650000206800006173000020620000b1
:10357400656500006e200000696e0000206900008f
:10358400646c0000652000006d6f0000646500003d
:103594000a0000000a520000657300006574000010
:1035a4002063000061750000736500003a2000008c
:1035b400005000006f770000657200002d6f00005e
:1035c4006e2e00000a000000536f000066740000b5
:1035d40077610000726500002052000065730000ee
:1035e400657400002e0a000000570000617400009a
:1035f40063680000646f00006720000054690000e5
:103604006d6500006f750000743a00002000000032
:103614000a0000004d4300004c52000020610000ed
:103624007373000065720000746900006f6e00001f
:103634002e0a000000420000726f0000776e000046
:103644002d6f0000757400002e0a00000054000065
:103654007261000070200000436f00006e6600007d
:103664006c690000637400002e0a00000049000029
:103674006c6c000065670000616c00002043000072
:103684006f6e000064690000746900006f6e0000d2
:103694002e0a0000004300006f6e000066690000ff
:1036a4006775000072610000746900006f6e0000ad
:1036b400204d0000697300006d6100007463000018
:1036c400682e00000a000000556e00006b6e0000ba
:1036d4006f7700006e2000007265000073650000c3
:1036e400742e00000a00000045720000726f000092
:1036f40072200000747200006170000070650000a8
:10370400643a00002000000050720000696f00005d
:1037140072690000747900003a200000002c000057
:103724002056000065630000746f000072200000e2
:103734006e7500006d620000657200003a200000a2
:10374400000a00000a00000045720000726f0000c9
:1037540072200000696e0000202e00002e2f000051
:103764002e2e00002f6c0000696200002f730000f1
:10377400726300002f70000069630000323400009f
:103784005f750000746900006c2e00006320000067
:103794006c6900006e6500002034000036390000ba
:1037a4003a200000415300005345000052540000e9
:1037b40028750000313600005f6200007267000067
:1037c400682000003c3d000020310000292000005a
:1037d40066610000696c0000656400002e0a000048
:1037e40000450000727200006f7200002069000042
:1037f4006e2000002e2e00002f2e00002e2f000021
:103804006c690000622f000073720000632f0000d7
:103814007069000063320000345f000075740000ba
:10382400696c00002e630000206c0000696e0000cb
:103834006520000034370000353a000020410000c4
:10384400535300004552000054280000665f0000f6
:1038540062720000672000003c2000003635000042
:1038640035330000352e00003529000020660000a5
:10387400616900006c650000642e00000a0000000d
:1038840055410000525400003120000070610000d6
:1038940072690000747900002065000072720000f3
:1038a4006f7200000a0000005541000052540000ed
:1038b4003120000066720000616d0000696e000036
:1038c4006720000065720000726f0000720a000039
:1038d400005500004152000054310000206f0000e8
:1038e4007665000072720000756e000020650000ad
:1038f400727200006f7200000a000000457200003e
:10390400726f000072200000696e0000202e00001b
:103914002e2f00002e2e00002f6c00006962000084
:103924002f730000726300002f70000069630000b1
:10393400323400005f75000061720000742e0000d4
:10394400632000006c6900006e65000020330000f5
:10395400363100003a200000415300005345000076
:103964005254000028750000333200005f620000ea
:10397400617500006452000061740000652000005d
:103984003e3d00002031000030300000304c00008b
:103994002920000066610000696c00006564000075
:1039a4002e0a00000055000041520000543200006d
:1039b400207000006172000069740000792000002a
:1039c40065720000726f0000720a0000005500006a
:1039d4004152000054320000206600007261000071
:1039e4006d6900006e6700002065000072720000bf
:1039f4006f7200000a00000055410000525400009c
:103a0400322000006f7600006572000072750000bd
:103a14006e20000065720000726f0000720a0000e0
:103a240000450000727200006f72000020690000ff
:103a34006e2000002e2e00002f2e00002e2f0000de
:103a44006c690000622f000073720000632f000095
:103a54007069000063320000345f0000756100008b
:103a6400727400002e630000206c0000696e000078
:103a74006520000037350000313a00002041000085
:103a840053530000455200005428000075330000d1
:103a9400325f000062610000756400005261000042
:103aa40074650000203e00003d200000313000001d
:103ab400303000004c2900002066000061690000dd
:103ac4006c650000642e00000a00000045720000ce
:103ad400726f000072200000696e0000202e00004a
:103ae4002e2f00002e2e00002f6c000069620000b3
:103af4002f730000726300002f70000069630000e0
:103b0400323400005f7300006572000069610000d8
:103b14006c2e0000632000006c6900006e650000dc
:103b240020380000303a0000204900006e76000082
:103b3400616c0000696400002055000041520000df
:103b4400540000003078000000450000727200004c
:103b54006f720000206900006e2000002e2e00000d
:103b64002f2e00002e2f00006c690000622f000031
:103b740073720000632f000070690000633200005c
:103b8400345f00007365000072690000616c00001e
:103b94002e630000206c0000696e000065200000a8
:103ba40032390000353a0000204900006e760000ea
:103bb400616c00006964000020550000415200005f
:103bc4005400000045720000726f00007220000073
:103bd400696e0000202e00002e2f00002e2e000003
:103be4002f6c0000696200002f73000072630000f4
:103bf4002f70000069630000323400005f7300001e
:103c040065720000696100006c2e000063200000f2
:103c14006c6900006e65000020330000333400003e
:103c24003a200000496e0000766100006c690000d3
:103c340064200000554100005254000000000000c0
:103c440050c3000030750000204e00001027000013
:103c540088130000b80b0000d0070000e803000040
:103c6400f40100002c010000c80000006400000002
:103c7400320000001e000000140000000a000000d2
:103c84000500000003000000020000000100000025
:103c94000503000002010000321e0000140a0000a7
:103ca40005030000020100000503000002010000fa
:103cb40005030000020100000a0a0000596f000019
:103cc40075720000206300006c6f0000636b0000dd
:103cd40020630000686f0000696300006520000035
:103ce40066610000696c00006564000020740000d7
:103cf4006f200000696e00006974000069610000b3
:103d04006c6900007a6500002e20000053650000f5
:103d1400652000002e2e00002f2e00002e2f000004
:103d24006c690000622f000073720000632f0000b2
:103d34007069000063320000345f0000636c0000af
:103d44006f6300006b66000072650000712e000056
:103d5400632000006c6900006e65000020310000e3
:103d640034360000206600006f720000206d0000f1
:103d74006f7200006520000064650000746100003b
:103d8400696c0000732e0000004500007272000090
:103d94006f720000206900006e2000002e2e0000cb
:103da4002f2e00002e2f00006c690000622f0000ef
:103db40073720000632f000070690000633200001a
:103dc400345f0000636c00006f6300006b660000ea
:103dd40072650000712e0000632000006c69000011
:103de4006e65000020310000373200003a200000e8
:103df4004153000053450000525400002875000050
:103e0400385f0000736f0000757200006365000086
:103e1400203c0000203800002920000066610000da
:103e2400696c0000656400002e0a000000000000b8
:103e34000a2e00002e2f000065630000686f00004a
:103e44002e6300002c20000062750000696c0000e5
:103e5400742000006f6e0000204d000061720000ad
:103e640020200000342000003230000032300000f6
:103e74002061000074200000313600003a35000053
:0c3e8400353a0000323200000a00000055
:020000040000fa
:103e90000000fa001f0407000080fa00000006007e
:103ea0000400fa00004f7800110798001e407800c7
:103eb0000004e00002003a001e00900032000700fb
:103ec0000080fa00000006000000fa0011eea900d0
:103ed00017eea9001beea9001deea90017eea80021
:103ee000a0312200910020002080880031808800cd
:103ef0000030ef000230ef0015eea90002000700cd
:103f00000080fa00000006000000fa000080800037
:103f10001180800061004000e0804800008088003f
:103f20001180880002808000138080002080800043
:103f300031808000800f5100818f590003003600ce
:103f4000040007000030ef000230ef000080fa00ac
:103f5000000006000000fa00a07080000080ea0067
:103f60004f00de00004078000080fb004f00dd00c5
:103f7000a170800001f0a10001007000a070880015
:103f80000080fa00000006000200fa00000f78002e
:103f9000608080000000e00003003a009e0078008e
:103fa000618088000000fe000080fa00000006002a
:103fb0000600fa0010079800210798009e00900064
:103fc000010f78001e009000ae0090004008de0057
:103fd00000007800a00288001e0078001080ba005f
:103fe0008000eb00c001dd00020020001e00780010
:103ff0001000ba008000eb000000710081807100a9
:104000000080fa00000006000e00fa000000200008
:10401000f10f2000e6ff07003007980041079800e5
:1040200020002000f10f2000e1ff0700500798005a
:104030006107980010c0b300004f7800007029009d
:104040001007980000702900200798003e0190009a
:10405000ce019000d0e4210001002000800f51002b
:10406000818f590003003a008070290010079800e2
:10407000020037000040eb00004f78005e01900026
:10408000ee0190003000240001002000800f51005c
:10409000818f590003003a00a07129002007980081
:1040a00000000000d0712900870107003e00900049
:1040b000ce00900009020700a072290082010700cb
:1040c0001e00900080010700d07229007e010700c9
:1040d0005e009000ee00900000020700a072290030
:1040e000790107002e00900077010700a0732900d6
:1040f000750107001e4078000004e00002003a004d
:10410000d0732900700107000080fa00000006004b
:104110000000fa00103a80004c00de0067406000aa
:104120000080fb00e30f50001b003200e30f500043
:1041300007003c00e10f500011003200e10f500079
:1041400012003c000000e0000a00320021003700ad
:10415000e50f500016003200e50f50001100350049
:10416000e60f500015003200e70f50001600320035
:1041700018003700409d2900530107001800370040
:10418000109e29005001070015003700709f29007c
:104190004d0107001200370010a129004a01070055
:1041a0000f00370040a32900470107000c0037002b
:1041b00030a42900440107000900370050a5290058
:1041c000410107000600370050a629003e01070004
:1041d0000300370040a729006bff07000000000024
:1041e0000080fa00000006000200fa000040eb0028
:1041f000004f7800003a8000680060000000e00096
:1042000003003200d0a829002f0107004067a90051
:10421000003a8000640060000000e000030032000b
:10422000d0aa2900280107004047a900c0ac2900f6
:1042300025010700003a8000610060000000e000f6
:104240000c00320010c0b300004f7800b0ad290060
:104250001d0107004007a9004027a9000c30ef000e
:104260000e30ef00000121008000eb000108780013
:104270004d003700013a80000004200000806000fb
:104280000000e0000600320060ae29000e010700c9
:1042900010c0b300004f780040c7a90040e7a90054
:1042a000003a8000700060000000e0000d00320065
:1042b00010c0b300004f780070af29000201070062
:1042c000708080000000e0000200320070808000fa
:1042d000fd000700a0b02900fb0007004087a900ef
:1042e00040e7a900013a800000082000008060003b
:1042f0000000e0000500320010c0b300004f78005d
:10430000c0b02900f000070040e7a900003a800093
:10431000620060000000e0000500320010c0b30041
:10432000004f7800d0b12900e70007004027a9001e
:10433000013a800000002800008060000000e000da
:104340000500320010c0b300004f780090b2290081
:10435000dd00070041e7a900013a800000002400c9
:10436000008060000000e0000500320010c0b300d3
:10437000004f780090b32900d300070041c7a9007f
:10438000013a800000202000008060000000e00072
:104390000500320010c0b300004f7800d0b42900ef
:1043a000c90007004127a9001e4078000004e00072
:1043b00002003a0060b62900c30007006080800058
:1043c0000000e0001800320060b72900be000700be
:1043d00060808000bc000700000121001000780010
:1043e0000000e0000a00320060b82900b6000700b3
:1043f000808080004800de006f40600020010700e0
:1044000010b92900b000070010d0bf001c01070040
:1044100030ba2900ac0007000c30ef000001210089
:104420008000eb0001087800f7fe070038ff070066
:104430000080fa00000006000200fa00000f780079
:10444000a1fe070092fe0700004028003100200076
:10445000f801070064ff07001e0078009a000700bb
:104460000080fa00000006000800fa00881f7800ab
:1044700020079800310798002e009000be009000a1
:104480009af90700008fbe001e0078009e00900081
:10449000b1f907000001be002e009000be009000a0
:1044a000f0f8070018c0b3000200200003f023005a
:1044b0008cf907000000e000010035000044eb002b
:1044c0000804e000030032001e0078009e00900007
:1044d0000400370012002000030020003e004100cd
:1044e000ae8049004f0478000080fa00000006000a
:1044f0000600fa00881f780010079800210798002e
:104500001e009000ae00900078f90700000f7800c0
:104510001e0078008000eb008ff907000001be004c
:104520001e009000ae009000cef8070018c0b30047
:104530000200200003f023006af907000000e000f9
:10454000010035000044eb000804e00002003200e6
:104550001e007800010037001e00e8004f047800bc
:104560000080fa00000006000e00fa00889fbe00de
:1045700020079800310798004207980054079800d8
:104580006507980010c0b300ce009000e18f500086
:10459000010036000040eb0061ba290040fe070030
:1045a0004e0090000000e00012003a002e00900043
:1045b000be00900068f907000004be005e00900095
:1045c000ee00900064f907000001be000800be0084
:1045d00002f907000200200003182400fff807007a
:1045e0000200200003f823009ef80700008fbe00a1
:1045f000110037002e009000be00900056f9070011
:104600000004be005e009000ee00900052f907002a
:104610000001be000800be00f0f807000200200004
:1046200003082400edf807000200200003f823002f
:104630008cf80700008fbe0018c0b30002f82f00ee
:10464000f37724001e0078009e00900025f90700f3
:104650000000e000010035000044eb0031bf2900fc
:10466000084078000efe07001e0078009e009000b3
:104670009fff07004f04be000080fa000000060004
:104680000200fa00004f780090808000e10f500097
:1046900003003200e20f5000040032000600370031
:1046a0001e4078009e020700050037001e4078007b
:1046b000110307000200370080d6290032fe0700f0
:1046c0000080fa00000006000200fa00000f7800e7
:1046d000040037001e00780010407800e8ff070053
:1046e0001e0fe8001e007800104078000004e00073
:1046f000f8ff3a000080fa00000006000a00fa0005
:104700002007980031079800024f98003e00900063
:104710000000e00002003a000000eb002400370037
:104720000000eb00100798000000eb001007980055
:10473000170037000e4890000004e000030032002c
:1047400024010700004f7800020037001101070024
:10475000004f78001e407800ea4f500010003200f1
:104760001e407800ed4f50000d0032009e40780052
:104770002e009000014878002e0090000000e80014
:10478000200798001e0090000000e8001007980025
:104790009e0090003e009000808f5000e5ff3900a1
:1047a0002e0090008040eb00014878001e00900031
:1047b0000080fa00000006000400fa00000f7800f4
:1047c000110798001e0090000041eb008000780067
:1047d0001e007800c9ff07000080fa0000000600f4
:1047e0000400fa00000f7800110798001e009000e6
:1047f00012c0b300800078001e007800bfff0700e1
:104800000080fa00000006000400fa00204798002b
:104810002e4090000080fb004400de00004f780036
:104820001e407800e94f50000400360071c3b30009
:104830001ec0400092ff07000300370001c3b30011
:104840001ec040008eff07002e4090006f4f60009a
:104850001e407800e94f50000400360071c3b300d9
:104860001ec0400086ff07000300370001c3b300ed
:104870001ec0400082ff07000080fa000000060012
:104880000200fa00004f780040da29008eff07008e
:104890001e407800dcff07000080fa0000000600e0
:1048a0000400fa001007980040da290086ff07008c
:1048b0001e0090004800de00004f78001e40780087
:1048c000d1ff07001e009000004f78001e407800c6
:1048d000cdff07000080fa00000006000600fa0085
:1048e000100798002107980040da290076ff07009a
:1048f0001e009000ae0090004808de00004f7800d7
:104900001e407800c0ff07001e009000ae0090001f
:104910004008de00004f78001e407800baff070014
:104920001e009000ae0090004809dd004800de0047
:1049300000007100c808de00004f78001e407800bb
:10494000b1ff07001e009000004f78001e40780065
:10495000adff07000080fa00000006000a00fa0020
:10496000004f98000040eb00004f78008e48900008
:104970001147980000c3b3002047980000c3b3005c
:104980003047980000c3b300404798000040eb0058
:10499000504798009e40900070ccb30080cf5000ec
:1049a000060036002e40900000c0e8002047980026
:1049b0001e4090008043b000104798009e40900039
:1049c00030c6b30080cf5000070036002e40900064
:1049d0000040e800204798009e409000c0c9b30006
:1049e00000c04000104798000040eb00004f7800e6
:1049f000210037001e80fb00e1e429000080400018
:104a0000904078001e40900080cf500019003e007a
:104a10001e80fb004200de00004078008080fb002a
:104a20000101e8000080fb000000e8000080e800d1
:104a30006e407800804078001e80fb0063e529000e
:104a4000008041001040780000c0400080407800a5
:104a50000280e800017778001e80fb00e1e4290075
:104a600000804000104078009e40900000c0500040
:104a7000104798001e4fe8001e407800e74f500096
:104a8000dcff36000040eb00504798000e80e80045
:104a90000dff07000080fa00000006000c00fa007d
:104aa000500798000040eb00004f7800de009000b7
:104ab0001107980000c3b3004047980000c3b3003b
:104ac0005047980000c3b3006047980000c3b3008c
:104ad0007047980000c3b300004f98000040eb00ff
:104ae000004f7800220037001e80fb00800040004d
:104af00020e2290000804000900078001e00900015
:104b0000808f500019003e001e80fb004200de0036
:104b1000004078000081fb000080fb006400400042
:104b20006e407800804078001e80fb0063006000cb
:104b3000a3e42900008041001040780000c040003c
:104b40008040780064004100017778001e80fb00ff
:104b50008000400020e22900008040001000780022
:104b60009e00900000805000100798001e4fe80043
:104b70001e407800f34f5000dbff36000040eb0092
:104b8000104f980064004700cffe07000080fa0035
:104b9000000006000000fa0090808000e10f500045
:104ba00003003200e20f500003003200040037001f
:104bb0006e01070005003700e2010700030037001f
:104bc00070da2900f0fc07000040eb000080fa00da
:104bd000000006000200fa00eeff0700004f780018
:104be0001e407800a6fe07001e4078000080fa00f4
:104bf000000006000000fa0090808000e10f5000e5
:104c000003003200e20f50000300320004003700be
:104c10005001070005003700c401070003003700fa
:104c200040de2900d8fc07000040eb000080fa00bd
:104c3000000006000400fa00008fbe0010002000f3
:104c4000908088001e0078009e00900053010700ad
:104c50000080fa00000006000400fa00004f78000f
:104c6000110798001e4078000004e00002003a009e
:104c70001e009000c4fc07000080fa00000006003f
:104c80000000fa00a30007000040280031002000c7
:104c9000e8ff070004402800350020000001eb0079
:104ca00000702800313920002ffe070040118800d5
:104cb0002062a9000080fa00000006000000fa004f
:104cc00042808000538080000080eb008080eb00f9
:104cd000800f5100818f5900120032004080800007
:104ce0005180800061004000e080480040808800e2
:104cf000518088004280800053808000f0d32000e3
:104d000031002000800f5100818f590007003600cc
:104d1000dbff0700e0e529006bfe07007afc0700d7
:104d2000feff370000000000010037000000000017
:104d30000080fa00000006000400fa0020479800f6
:104d400010c0b300ae409000e7cf50000100360025
:104d50000040eb0071ec2900bfff0700ff3ffc00a3
:104d6000113a8000010f78002e40900067406000eb
:104d70000080fb00670060004800dd001e01780035
:104d8000f18f2f008100610001007000000f78009a
:104d90001e0078000000a000000f78000e00e80060
:104da000104078000081fb0080072000a10920004e
:104db0003374200080497800814978008249780066
:104dc0000e007800104078000081fb006004200095
:104dd0007105200023742000804978008149780003
:104de000824978000000fc000830ef000a30ef0034
:104df00001003700b1ff0700103a80006100600039
:104e00000000e000fbff3a002e409000e14f500010
:104e1000060032002e409000e34f50000c003a0094
:104e200003003700a5ff0700010037000000000065
:104e3000113a800000022000008060000000e000c5
:104e4000f8ff3200030037009cff07000100370025
:104e500000000000103a80004c00de006740600057
:104e60008080fb002e4090000080fb00808f50006f
:104e7000f5ff3a000080fa00000006000000fa008a
:104e80000080fa00000006000000fa000040eb007d
:104e9000a9ff0700413a800000fc2f00008060005d
:104ea000403a88000080fa00000006000000fa0086
:104eb0000040eb00a0ff0700413a800000fc2f00fb
:104ec00000806000403a8800213a800000fe2f00f8
:104ed000008060007000b300203a8800313a800002
:104ee00000e02f0080806000100c200001007000a6
:104ef000303a8800213a8000f0f32f0000806000f3
:104f0000203a880010c0b3008bff07000080fa0031
:104f1000000006000000fa000040eb0086ff0700da
:104f2000413a800000fc2f0000806000403a880079
:104f3000213a800000fe2f0000806000203a8800a7
:104f4000313a800000e02f0080806000f0032000f4
:104f500001007000303a8800213a8000f0f32f0001
:104f600000806000203a880010c0b30072ff070084
:104f70000080fa00000006000000fa000040eb008c
:104f80006dff0700413a800000fc2f0000806000a8
:104f9000403a8800213a800000fe2f000080600027
:104fa000203a8800313a800000e02f0080806000c5
:104fb000a004200001007000303a8800213a8000ef
:104fc000f0f32f0000806000203a880010c0b3008a
:104fd00059ff07000080fa00000006000000fa00f8
:104fe0000040eb0054ff0700213a800000fe2f0034
:104ff00000806000203a8800313a800000e02f00f5
:10500000808060006002200001007000303a88005b
:10501000213a8000f0f32f0000806000203a8800e1
:1050200030c0b30044ff07000080fa000000060013
:105030000000fa0020c0b3003fff07000080fa0024
:10504000000006000400fa00004f780011079800e5
:105050001e4078000004e00002003a001e009000ac
:10506000c9fb07000080fa00000006000400fa00f7
:10507000008fbe001e0078009e009000fa0007001e
:105080001e0078009e009000c409de004c0add007e
:105090004401de0002017200008080001180800067
:1050a0000200400083804800008088001180880052
:1050b0000080fa00000006000200fa0010118000d3
:1050c000680060000000e000040032003011800041
:1050d000004f780020c42900abfb070010118000ae
:1050e000640060000000e000040032003011800025
:1050f000004f780060c52900a3fb07001011800055
:10510000620060000000e000030032002222a900db
:10511000b0c629009cfb07000080fa0000000600d2
:105120000200fa00004f78000100370076fb07000c
:105130001111800000202000008060000000e000cd
:10514000faff3a001e80fb00201188000080fa0060
:10515000000006000000fa001011800000407800f6
:10516000614060000080fa00000006000000fa00c4
:105170000100370064fb070010118000610060002f
:105180000000e000fbff3200cbff07003011800081
:10519000004078000080fa00000006000400fa00d9
:1051a000008fbe00114ea800174ea9001b4ea9008b
:1051b0001d4ea9002136800000f82f00808060007d
:1051c000a00220000100700020368800116ea900a6
:1051d000176ea9001b6ea9001d6ea9004134800046
:1051e000f00f2c00008060000080a0004034880098
:1051f0002022ef001e0278009e0290000001eb00ca
:1052000020722b0011392000d7fc070040118800c4
:1052100000002800001188000040210010118800c3
:1052200014c0b300703e2000010020001e01780071
:105230009e019000800f5100818f590001003e00b7
:105240000042eb0001c82900044078007dff070000
:10525000909e2e000100200084ff07002222a9005a
:1052600001003700301180001011800068006000dc
:105270000000e000fbff3a001011800064006000b5
:105280000000e000f7ff3a000080fa00000006008e
:105290000200fa0090118000680060000000e00049
:1052a00004003200b0118000004f780050cd29007a
:1052b00035fb070090118000640060000000e000f2
:1052c00004003200b0118000004f780090ce290019
:1052d0002dfb070090118000620060000000e000dc
:1052e000030032003222a900e0cf290026fb07008c
:1052f0000080fa00000006000200fa00004f78006b
:105300000100370000fb0700911180000020200001
:10531000008060000000e000faff3a001e80fb0001
:10532000a01188000080fa00000006000000fa00ca
:105330009011800000407800614060000080fa0019
:10534000000006000000fa0001003700eefa070036
:1053500090118000610060000000e000fbff32005f
:10536000cbff0700b0118000004078000080fa00f9
:10537000000006000400fa00008fbe003022ef009b
:105380001e0278009e0290000001eb0020722b00ac
:105390001139200074fc0700c011880000002800ab
:1053a00080118800004021009011880014c0b300d3
:1053b000703e2000010020001e0178009e01900038
:1053c000800f5100818f590001003e000042eb0028
:1053d00031d12900044078001aff0700909e2e006a
:1053e0000100200021ff07003222a9000100370040
:1053f000b011800090118000680060000000e000a3
:10540000fbff3a0090118000640060000000e000a3
:10541000f7ff3a000080fa00000006000000fa00e2
:10542000bcfe07000080fa00000006000200fa003f
:10543000faff0700a4fa070000402800310020000e
:10544000fcfd070068fb0700a0f129009efc070097
:10545000d0fd0700004f78001ecfe8001e40780006
:0854600087fc0700faff37008a
:020000040000fa
:10546800f03fb1000180b10006003500ee030900ed
:1054780000000000403fb1000180b100fbff3d008b
:105488001000b000203fb000020035000080090085
:08549800000000000000060006
:020000040000fa
:1054a0000810000004000000800000000010000050
:1054b0000800000080000000121000000200000040
:0c54c0008200000001000000000000005d
:020000040000fa
:020000040002f8
:04afe000cfff00009f
:020000040000fa
:020000040002f8
:04afe400efff00007b
:020000040000fa
:020000040002f8
:04afe80079ff0000ed
:020000040000fa
:020000040002f8
:04afec00430000001e
:020000040000fa
:020000040002f8
:04aff00078ff0000e6
:020000040000fa
:020000040002f8
:04aff400ffff00005b
:00000001FF
