:020000040000fa
:080000000002040000000000f2
:020000040000fa
:10000800020c0000060c00000a0c00000e0c000098
:10001800120c0000160c00001a0c00001e0c000048
:10002800220c0000260c00002a0c00002e0c0000f8
:10003800320c0000360c00003a0c00003e0c0000a8
:10004800420c0000460c00004a0c00004e0c000058
:10005800520c0000560c00005a0c00005e0c000008
:10006800620c0000660c00006a0c00006e0c0000b8
:10007800720c0000760c00007a0c00007e0c000068
:10008800820c0000860c00008a0c00008e0c000018
:10009800920c0000960c00009a0c00009e0c0000c8
:1000a800a20c0000a60c0000aa0c0000ae0c000078
:1000b800b20c0000b60c0000ba0c0000be0c000028
:1000c800c20c0000c60c0000ca0c0000ce0c0000d8
:1000d800d20c0000d60c0000da0c0000de0c000088
:1000e800e20c0000e60c0000ea0c0000ee0c000038
:1000f800f20c0000f60c0000fa0c0000fe0c0000e8
:10010800020d0000060d00000a0d00000e0d000093
:10011800120d0000160d00001a0d00001e0d000043
:10012800220d0000260d00002a0d00002e0d0000f3
:10013800320d0000360d00003a0d00003e0d0000a3
:10014800420d0000460d00004a0d00004e0d000053
:10015800520d0000560d00005a0d00005e0d000003
:10016800620d0000660d00006a0d00006e0d0000b3
:10017800720d0000760d00007a0d00007e0d000063
:10018800820d0000860d00008a0d00008e0d000013
:10019800920d0000960d00009a0d00009e0d0000c3
:1001a800a20d0000a60d0000aa0d0000ae0d000073
:1001b800b20d0000b60d0000ba0d0000be0d000023
:1001c800c20d0000c60d0000ca0d0000ce0d0000d3
:1001d800d20d0000d60d0000da0d0000de0d000083
:1001e800e20d0000e60d0000ea0d0000ee0d000033
:0801f800f20d0000f60d0000fd
:020000040000fa
:10020800020c0000060c00000a0c00000e0c000096
:10021800120c0000160c00001a0c00001e0c000046
:10022800220c0000260c00002a0c00002e0c0000f6
:10023800320c0000360c00003a0c00003e0c0000a6
:10024800420c0000460c00004a0c00004e0c000056
:10025800520c0000560c00005a0c00005e0c000006
:10026800620c0000660c00006a0c00006e0c0000b6
:10027800720c0000760c00007a0c00007e0c000066
:10028800820c0000860c00008a0c00008e0c000016
:10029800920c0000960c00009a0c00009e0c0000c6
:1002a800a20c0000a60c0000aa0c0000ae0c000076
:1002b800b20c0000b60c0000ba0c0000be0c000026
:1002c800c20c0000c60c0000ca0c0000ce0c0000d6
:1002d800d20c0000d60c0000da0c0000de0c000086
:1002e800e20c0000e60c0000ea0c0000ee0c000036
:1002f800f20c0000f60c0000fa0c0000fe0c0000e6
:10030800020d0000060d00000a0d00000e0d000091
:10031800120d0000160d00001a0d00001e0d000041
:10032800220d0000260d00002a0d00002e0d0000f1
:10033800320d0000360d00003a0d00003e0d0000a1
:10034800420d0000460d00004a0d00004e0d000051
:10035800520d0000560d00005a0d00005e0d000001
:10036800620d0000660d00006a0d00006e0d0000b1
:10037800720d0000760d00007a0d00007e0d000061
:10038800820d0000860d00008a0d00008e0d000011
:10039800920d0000960d00009a0d00009e0d0000c1
:1003a800a20d0000a60d0000aa0d0000ae0d000071
:1003b800b20d0000b60d0000ba0d0000be0d000021
:1003c800c20d0000c60d0000ca0d0000ce0d0000d1
:1003d800d20d0000d60d0000da0d0000de0d000081
:1003e800e20d0000e60d0000ea0d0000ee0d000031
:0803f800f20d0000f60d0000fb
:020000040000fa
:100400008fb620000ebf20000e0188000000000003
:10041000000020000000e000020032000001200087
:10042000200288000c000700007620000100200058
:1004300011000700000020000000e0000200320070
:100440000000020000000000c803020000000000dd
:100450000040da000000fe004440a9000000200037
:100460000000e0000300320000002000a00188002e
:100470004440a80000000600910188008000780038
:100480000000eb0015003700e280400032a0b4000d
:100490009101ba00e280400032a0b4009102ba009b
:1004a000e280400032a0b4000002eb00472bde00e7
:1004b000f507b200602ce10004003a000059eb009f
:1004c0008301e900fdff3e00040037006128e100e0
:1004d000010032000082eb00040007001101ba00a5
:1004e0000200e000e8ff3a00000006003159ba00bf
:1004f0008301e9000c0032002159ba008301e900b0
:10050000080032000400e00003003a00e2804000ee
:1005100032a0b400f5ff370011d9ba008301e90019
:10052000faff3a008100e800e180400032a0b40008
:10053000000006000040da000000fe006022b80063
:10054000060220000000d0008180d2000482d20088
:100550008582d2000000a0000202520083825a006d
:10056000030031000202420083824a000000a10021
:0c0570000603e900f3ff3a00000006005b
:020000040000fa
:10057c0094010700000006000210200023048000f4
:10058c0083006100020032000048eb000d003700d0
:10059c002242ab0002003200311180000000fe004c
:1005ac002222ab00020032002222a9000000fe0031
:1005bc002202ab00f1ff320011e1a90031118000e1
:1005cc000148780000000600889fbe008a9fbe008c
:1005dc00000578000204be000b3020008a8545001f
:1005ec008800780009007800b8010700014d7800f8
:1005fc004881de00124598002045980063054500af
:10060c0062044400e0844c008b0f5500f4ff3a0068
:10061c004f05be004f04be00000006000220200063
:10062c001311800083006100fdff3a000000fb0005
:10063c002011880000000600889fbe008a1f7800e9
:10064c00010578000a00e0000700340080047800ff
:10065c000004eb0039407800f0ff07000804e800c4
:10066c00880f5500fbff3c004f0578004f04be007f
:10067c0000000600ec874700889fbe008a9fbe00e2
:10068c008c9fbe008e1f78000204be00000578000f
:10069c001b0020000ef02f00020037006305450000
:1006ac008b05e8001a80fb008c006700810070004d
:1006bc001a4190004811dd00f00f2000808060008e
:1006cc00010671002a4190000281fb008d00670039
:1006dc000101710000016100820678008c01780034
:1006ec008800780009007800740107007f0064001e
:1006fc00f80f500006003a000800be00e0b79f005b
:10070c00f1b79f000c00be00c0b79f00d1b79f008f
:10071c00e18f5500120032008bbf9f000b00780058
:10072c00f003b20007003a00cfb197005fb1970019
:10073c00efb097007fb09700600107001000240015
:10074c005001070062044400e0844c00f00f2000cc
:10075c008fb89700808f5000d0ff34000300370013
:10076c0062044400e0844c00ccff37004f07780053
:10077c004f06be004f05be004f04be00cf00b100b7
:10078c0000000600f2874700889fbe008a9fbe00cb
:10079c008c9fbe008e1f78001021ef001221ef00fd
:1007ac002022ef0072ff070040a7a90002c0200022
:1007bc00030020008200780003007800430107004a
:1007cc000004be0040c7ab0001003200430107002b
:1007dc000804e000040032004007ab0003003a00bc
:1007ec0040e7ab0001003a003c0107001061a80093
:1007fc008500a9009500a900f00f20000100200041
:10080c00080160008001eb00800f5100818f5900be
:10081c000c0032000804fb00cfc4de0000a0250051
:10082c0000c9b9002126200001c2b9008200420093
:10083c000044b80089844000790888006808880062
:10084c0011e1a80000402800310020005f010700e2
:10085c007a80570080bf9f007e80570046ff0700bc
:10086c002fe09700e74f50006700320007003c0074
:10087c00e24f50000d003200e34f50001b003200dd
:10088c000004e0009100320092003700e94f500064
:10089c003f0032006e003500f14f50005100320025
:1008ac00f34f50008b003a00550037007c80570006
:1008bc0031ff07007b8057002fff07000fb8970010
:1008cc002dff07000040eb00f0e79f002fb19700d1
:1008dc00bfb19700008020003bff070001302000d3
:1008ec000080200054ff0700dbff370078805700a2
:1008fc0021ff0700778057001fff07007680570005
:10090c001dff07000040eb00b0ef9f000004eb0060
:10091c00098020000a3020000900440016ff07005f
:10092c000804e8008a0f5400fbff3a004fb0970010
:10093c00dfb0970000017800f23fb20008003a00e7
:10094c00f2bf2000820f5000e08f58000d003600df
:10095c0022042400cfb097005fb09700e600070098
:10096c004fb09700dfb09700f2bf2000820f50000d
:10097c00e08f5800030036000001be00008020000c
:10098c003cff070010c0b30024ff0700b2ff370084
:10099c0002002000f30f2000820078000300780092
:1009ac00ca000700e0b79f00f1b79f00410020008c
:1009bc007480570020ff070022002000f30f200056
:1009cc008200780003007800c0000700e0b79f00a9
:1009dc00f1b79f00410020007480570016ff0700fc
:1009ec009dff370030c0b3000cff07000040eb0048
:1009fc000aff070010c0b30008ff070096ff37007e
:100a0c00b900070094ff37000004eb0009802000b8
:100a1c004b0220000805780009004400d6fe0700b0
:100a2c000800e80009004000d3fe070063044400fe
:100a3c000a85e80009004500cffe070010c0b3008e
:100a4c00f6fe07008b0f5400f2ff3a0082ff3700ce
:100a5c000a0020008b0f2000088020004902200093
:100a6c00888444000ef02f001804e00010003a00b7
:100a7c00984090008180fb000c0167008280700020
:100a8c00284090004800dd00f20f200082806000ba
:100a9c0081017000030678000d0178008a0078004f
:100aac000b0078008500070000002400750007008b
:100abc0062054500e0854d0063044400890f540035
:100acc00e9ff3a008800070063ff37008300070046
:100adc0061ff37000040eb00d0fe07005eff3700df
:100aec00000006000200fa00ff3ffc00113a8000f3
:100afc00f1bf9f00670160004811dd00f18f2f00ee
:100b0c00ffb9970081806100810071000100a00095
:100b1c00f1bf9f00fff997008381fb00a209200021
:100b2c008107200034742000014a7800024a7800c2
:100b3c00034a7800eff897008181fb0072052000d2
:100b4c006104200024742000014a7800024a7800d5
:100b5c00034a78000000fc004207ab00feff3a009d
:100b6c00e14f500002003200e34f500004003a0005
:100b7c0001022000133a800003816000fdff320067
:100b8c008080fb00103a80004c00de0067006000a3
:100b9c00810f5000fbff3a000080fa0000000600b5
:100bac000000060020c0b300ceff070000000600c6
:100bbc000040eb00cbff070000fc2f004827b600dd
:100bcc00000006000040eb00c6ff070000fc2f00f1
:100bdc004827b60000fe2f004407b6007000b30093
:100bec00203a880000e02f004607b600100cb30036
:100bfc00303a8800f0f32f004427b60010c0b30041
:100c0c00b8ff0700000006000040eb00b5ff07002e
:100c1c0000fe2f004407b6000020a000203a8800f8
:100c2c0000e02f004607b6000070a000303a8800a4
:100c3c00f0f32f004427b60030c0b300a9ff070023
:100c4c00000006000040eb00a6ff070000fe2f008e
:100c5c004427b60000e02f004607b6006002b30040
:100c6c00303a8800f0f32f004427b60030c0b300b0
:100c7c009cff07000000060020c0b30099ff07008e
:100c8c0000000600003b880050052000303b880027
:100c9c00a00a2000303b880061e7a800000000009b
:100cac000000000061e7af00feff37000000060007
:100cbc0090018800810078000000060090018800f7
:100ccc008308bb008288bb000000060090018800ee
:100cdc001100ba009180ba0000000600000e04005a
:100cec0000000000000006004007a800000e0400f1
:100cfc0000000000000006003200f800023b8800f3
:100d0c00900188008108bb0050052000303b880012
:100d1c00a00a2000303b880061e7a800000000001a
:100d2c000000000061e7af00feff37003200f90061
:100d3c000000060000000600881f780002047800fe
:100d4c000401be00fafd07000800e0000f003a00a5
:100d5c006f016000e70f5100050036004c09dd0003
:100d6c004400de0000007100c408de0015003700ee
:100d7c004c09dd004400de0000007100c408de00f8
:100d8c0061005000e08058000e00370063016000e5
:100d9c00e10f5100050036004e09dd004200de0077
:100dac0000007100c208de00060037004e09dd00ad
:100dbc004200de0000007100c208de00610050003d
:100dcc00e08058004f04780000000600120020005c
:100ddc0012588800030007000000060027000700d7
:100dec0000000600c942a800cf42a9006a00a90071
:100dfc0002fe2f002335800003016100a200b30026
:100e0c0022358800c962a900cf62a90069e0a90057
:100e1c00f20f2e0053368000030161000230b30044
:100e2c00523688002022ef000002be000001eb00c9
:100e3c0000a0250021262000bfff070040118800dc
:100e4c0000002800001188000040200010118800cc
:100e5c0000c4290001002000e0ff07002222a900a5
:100e6c0001003700301180002262ab00fdff3a0018
:0c0e7c002242ab00fbff3a000000060021
:020000040000fa
:100e8800f03fb1000180b10006003500ee03090013
:100e980000000000403fb1000180b100fbff3d00b1
:100ea8001000b000203fb0000200350000800900ab
:080eb80000000000000006002c
:020000040000fa
:100ec000020b000002000000020000000100000010
:040ed000000000001e
:020000040000fa
:0200000401f009
:04000000ffff0000fe
:020000040000fa
:0200000401f009
:04000800ffff0000f6
:020000040000fa
:0200000401f009
:04000c0078ff000079
:020000040000fa
:0200000401f009
:040010005dff000090
:020000040000fa
:0200000401f009
:0400140079ff000070
:020000040000fa
:0200000401f009
:04001800fcff0000e9
:020000040000fa
:0200000401f009
:04001c00dfff000002
:00000001FF
