:020000040000fa
:080000000002040000000000f2
:020000040000fa
:1000080002100000061000000a1000000e10000088
:1000180012100000161000001a1000001e10000038
:1000280022100000261000002a1000002e100000e8
:1000380032100000361000003a1000003e10000098
:1000480042100000461000004a1000004e10000048
:1000580052100000561000005a1000005e100000f8
:1000680062100000661000006a1000006e100000a8
:1000780072100000761000007a1000007e10000058
:1000880082100000861000008a1000008e10000008
:1000980092100000961000009a1000009e100000b8
:1000a800a2100000a6100000aa100000ae10000068
:1000b800b2100000b6100000ba100000be10000018
:1000c800c2100000c6100000ca100000ce100000c8
:1000d800d2100000d6100000da100000de10000078
:1000e800e2100000e6100000ea100000ee10000028
:1000f800f2100000f6100000fa100000fe100000d8
:1001080002110000061100000a1100000e11000083
:1001180012110000161100001a1100001e11000033
:1001280022110000261100002a1100002e110000e3
:1001380032110000361100003a1100003e11000093
:1001480042110000461100004a1100004e11000043
:1001580052110000561100005a1100005e110000f3
:1001680062110000661100006a1100006e110000a3
:1001780072110000761100007a1100007e11000053
:1001880082110000861100008a1100008e11000003
:1001980092110000961100009a1100009e110000b3
:1001a800a2110000a6110000aa110000ae11000063
:1001b800b2110000b6110000ba110000be11000013
:1001c800c2110000c6110000ca110000ce110000c3
:1001d800d2110000d6110000da110000de11000073
:1001e800e2110000e6110000ea110000ee11000023
:1001f800f2110000f6110000fa110000fe110000d3
:1002080002120000061200000a1200000e1200007e
:1002180012120000161200001a1200001e1200002e
:1002280022120000261200002a1200002e120000de
:1002380032120000361200003a1200003e1200008e
:1002480042120000461200004a1200004e1200003e
:1002580052120000561200005a1200005e120000ee
:020000040000fa
:100400008f6621000eff2d000e0188000000000005
:10041000000020000000e000020032000001200087
:10042000200288000c000700c07920000100200095
:100430000f000700000020000000e0000200320072
:100440000000020000000000fc03020000000000a9
:100450000040da000000fe00200020000000e00064
:100460000200320010002000900188000000060009
:10047000a1028800800078000000eb001a0037001d
:10048000e280400054a0b4009101ba00e280400034
:1004900054a0b4009102ba00e280400054a0b4001d
:1004a0000002eb00472bde00f507b200a601880032
:1004b000602ce10008003a000049eb000201e8006e
:1004c000020039003420ec0002f0a0008301e900b2
:1004d000f9ff3e00040037006128e100010032000e
:1004e0000082eb00040007001101ba000200e000e6
:1004f000e3ff3a000000060004d0a300e20f490029
:100500001c003900810278003549ba000201e80078
:10051000020039003420ec0002f0a0008301e90061
:100520000f0032002549ba000201e800020039003c
:100530003420ec0002f0a0008301e9000800320042
:100540000400e0000600320015c9ba000201e8000c
:10055000020039003420ec0002f0a0008301e90021
:100560008180e80054a0b4000300e000e2ff3a00fc
:10057000000006009102ba00055978008301e900e5
:10058000f7ff3200c82ade00055978008301e90030
:10059000f3ff32000400e000f1ff320011d9ba008d
:1005a000eeff37000040da000000fe006022b800d5
:1005b000060220000000d0008180d2000482d20018
:1005c0008582d2000000a0000202520083825a00fd
:1005d000030031000202420083824a000000a100b1
:0c05e0000603e900f3ff3a0000000600eb
:020000040000fa
:1005ec00810107000000060002102000034080007b
:1005fc0083006100020032000048eb000d00370060
:10060c002242ab0002003200311180000000fe00db
:10061c002222ab00020032002222a9000000fe00c0
:10062c002202ab00f1ff320011e1a9003111800070
:10063c000148780000000600889fbe008a9fbe001b
:10064c00000578000204be000b6020008b054500fd
:10065c008800780009007800b9010700014d780086
:10066c004881de001245980020459800630545003e
:10067c0062044400e0844c008b0f5500f4ff3a00f8
:10068c004f05be004f04be000000060002202000f3
:10069c001311800083006100fdff3a000000fb0095
:1006ac002011880000000600889fbe008a1f780079
:1006bc00010578000a00e00007003400800478008f
:1006cc000004eb0039407800f0ff07000804e80054
:1006dc00880f5500fbff3c004f0578004f04be000f
:1006ec0000000600ea874700889fbe008a9fbe0074
:1006fc008c9fbe008e1f7800000578000007eb0071
:10070c000bf02f00f2b79f0083bf9f005fb49700e0
:10071c00efb497001a80fb008880650081007000a0
:10072c001a4190004811dd00f00f2000808060001d
:10073c00010471002a4190000281fb008980650050
:10074c00010171000001610082047800ba40900040
:10075c008180fb008c81650083807000ca41900011
:10076c00c819dd0080806000018671005a4290003b
:10077c000482fb008d8065000102720000026200a1
:10078c0084067800660747008c02780088017800a0
:10079c00ffb097000fb8970061010700120024000a
:1007ac00ffb097000fb89700480107007fb0970083
:1007bc008fb8970064004000e0804800f0b79f00bd
:1007cc0081bf9f006605450001602000810f570026
:1007dc00d0ff3a004f0778004f06be004f05be0011
:1007ec004f04be00af00b100000006000e00fa007e
:1007fc00889fbe008a9fbe008c1f78001021ef00de
:10080c001221ef002022ef0075ff070040a7a9007e
:10081c000200210003002000820078000300780011
:10082c00470107000004be0040c7ab0001003200c6
:10083c00470107000804e000040032004007ab0049
:10084c0003003a0040e7ab0001003a00400107000a
:10085c001061a8000108a9002108a900f00f2000d0
:10086c0001002000080160008001eb00800f5100a6
:10087c00818f59000c0032000804fb00cfc4de004d
:10088c0021722b0081c8b9001239200082c1b90035
:10089c00020040000144b800890440007908880037
:1008ac006808880011e1a8000040280031002000f1
:1008bc006201070074865700788057004aff0700d2
:1008cc000fe89700e74f50006700320007003c002c
:1008dc00e24f50000d003200e34f50001b0032007d
:1008ec000004e0007400320075003700e94f50003e
:1008fc003f0032006e003500f14f500051003200c5
:10090c00f34f50006e003a005500370076805700c8
:10091c0035ff07007580570033ff07000c00780087
:10092c0031ff07000040eb00d0ef9f005fb1970054
:10093c00efb19700000021003fff0700016020008d
:10094c000000210058ff0700dbff370072805700c2
:10095c0025ff07007180570023ff070070805700a8
:10096c0021ff07000040eb0090f79f000004eb0014
:10097c00090021000a602000090044001aff07004a
:10098c000804e8008a0f5400fbff3a007fb0970080
:10099c008fb89700f27f20000001610008003a0038
:1009ac00f2bf2000820f5000e08f58000d0036007f
:1009bc0032002400ffb097000fb89700eb0007003f
:1009cc007fb097008fb89700f2bf2000820f5000c5
:1009dc00e08f5800030036000001be00000021002b
:1009ec0040ff070010c0b30028ff0700b2ff37001c
:1009fc0002002000f30f2000820078000300780032
:100a0c00cf00070090bf9f00a1bf9f0041002000b6
:100a1c006e80570024ff070022002000f30f2000f7
:100a2c008200780003007800c500070090bf9f008b
:100a3c00a1bf9f00410020006e8057001aff0700e5
:100a4c009dff370030c0b30010ff07000040eb00e3
:100a5c000eff070010c0b3000cff070096ff370015
:100a6c00be00070094ff37000004eb0009002100d2
:100a7c004b0220000805780009004400dafe07004c
:100a8c000800e80009004000d7fe0700630444009a
:100a9c000a85e80009004500d3fe070010c0b3002a
:100aac00fafe07008b0f5400f2ff3a0082ff37006a
:100abc00aa00070080ff3700a50007007eff370063
:100acc000040eb00f1fe07007bff37000000060042
:100adc000200fa00ff3ffc00113a8000f1bf9f00ba
:100aec00670160004811dd00f18f2f00ffb99700fe
:100afc0081806100810071000100a000f1bf9f00a6
:100b0c00fff997008381fb00a209200081072000d8
:100b1c0034742000014a7800024a7800034a7800b5
:100b2c00eff897008181fb00720520006104200022
:100b3c0024742000014a7800024a7800034a7800a5
:100b4c000000fc004207ab00feff3a00e14f5000f2
:100b5c0002003200e34f500004003a000102200072
:100b6c00133a800003816000fdff32008080fb009f
:100b7c00103a80004c00de0067006000810f5000ce
:100b8c00fbff3a000080fa0000000600000006009f
:100b9c000040eb00ceff070000fc2f004827b600fa
:100bac00000006000040eb00c9ff070000fc2f000e
:100bbc004827b60000fe2f004407b6007000b300b3
:100bcc00203a880000e02f004607b600100cb30056
:100bdc00303a8800f0f32f004427b60010c0b30061
:100bec00bbff0700000006000040eb00b8ff070049
:100bfc0000fc2f004827b60000fe2f004427b6004b
:100c0c0000e02f004607b600f003b300303a88002e
:100c1c00f0f32f004427b60010c0b300acff070060
:100c2c00000006000040eb00a9ff070000fc2f00ad
:100c3c004827b60000fe2f004427b60000e02f0026
:100c4c004607b600a004b300303a8800f0f32f003a
:100c5c004427b60010c0b3009dff0700000006003b
:100c6c000040eb009aff070000fe2f004427b6005f
:100c7c0000e02f004607b6006002b300303a88004f
:100c8c00f0f32f004427b60030c0b30090ff0700ec
:100c9c000000060020c0b3008dff07000000060016
:100cac00403988005005200070398800a00a2000c7
:100cbc007039880029e7a80000000000000000003f
:100ccc0029e7af00feff37000000060060398800fe
:100cdc0051398800423988000600fc00500520007c
:100cec0070398800a00a20007039880029e7a80014
:100cfc00000000000000000029e7af00feff3700f5
:100d0c0000000600a00288008100780000000600a8
:100d1c00a00288008308bb008288bb00000006008c
:100d2c00a00f2000a0028800010020008308bb0057
:100d3c008298bb008508bb008498bb0000000600ad
:100d4c00a00288001100ba009180ba0000000600d1
:100d5c000013040000000000000006004007a8007b
:100d6c000013040000000000000006004239880057
:100d7c0060398800513988000600fc0050052000bd
:100d8c0070398800a00a20007039880029e7a80073
:100d9c00000000000000000029e7af00feff370054
:100dac000000060000000600881f7800020478008e
:100dbc000401be00fafd07000800e0000f003a0035
:100dcc006f016000e70f5100050036004c09dd0093
:100ddc004400de0000007100c408de00150037007e
:100dec004c09dd004400de0000007100c408de0088
:100dfc0061005000e08058000e0037006301600075
:100e0c00e10f5100050036004e09dd004200de0006
:100e1c0000007100c208de00060037004e09dd003c
:100e2c004200de0000007100c208de0061005000cc
:100e3c00e08058004f0478000000060012002000eb
:100e4c0012b088000300070000000600290007000c
:100e5c00000006001f4ea900114ea8001b4ea90051
:100e6c001d4ea90002f82f002336800003016100fb
:100e7c00a202b30022368800500ea900560ea9001b
:100e8c005a0ea9005c0ea90002fc2f0073348000de
:100e9c00030161000200a000723488002022ef00e0
:100eac000002be000001eb0020722b001139200063
:100ebc00bdff0700401188000000280000118800c9
:100ecc000040210010118800909e2e00010020008f
:100edc00deff07002222a90001003700301180003c
:100eec002262ab00fdff3a002242ab00fbff3a004e
:040efc0000000600ec
:020000040000fa
:100f0000f03fb1000180b10006003500ee0309009a
:100f100000000000403fb1000180b100fbff3d0038
:100f20001000b000203fb000020035000080090032
:080f30000000000000000600b3
:020000040000fa
:100f3800021600000200000082000000010000000c
:040f480000000000a5
:020000040000fa
:0200000401f009
:04000800cfffff0027
:020000040000fa
:0200000401f009
:04000c0078ffff007a
:020000040000fa
:0200000401f009
:040010005bffff0093
:020000040000fa
:0200000401f009
:0400140079ffff0071
:020000040000fa
:0200000401f009
:04001800e8ffff00fe
:020000040000fa
:0200000401f009
:04001c00dfffff0003
:00000001FF
